:020000040800F2
:1000000000000524ED230008C91C0008D11C0008CD
:10001000D91C0008E11C0008E91C000800000000D1
:10002000000000000000000000000000F11C0008BB
:10003000FF1C0008000000000D1D00081B1D00082B
:1000400041240008412400084124000841240008FC
:1000500041240008412400084124000841240008EC
:1000600041240008412400084124000841240008DC
:1000700041240008412400084124000841240008CC
:10008000412400084124000841240008291D0008DB
:100090003D1D0008412400084124000841240008B7
:1000A000412400084124000841240008412400089C
:1000B000511D00084124000841240008651D000866
:1000C000412400084124000841240008412400087C
:1000D000412400084124000841240008412400086C
:1000E00041240008412400080000000041240008C9
:1000F000412400084124000841240008412400084C
:10010000412400084124000841240008412400083B
:10011000412400084124000841240008412400082B
:10012000412400084124000841240008412400081B
:10013000412400084124000841240008412400080B
:1001400000000000000000000000000000000000AF
:1001500041240008412400084124000841240008EB
:1001600041240008412400084124000841240008DB
:100170004124000841240008412400080000000038
:1001800041240008412400084124000841240008BB
:1001900041240008412400084124000841240008AB
:1001A0004124000841240008412400080000000008
:1001B000412400084124000841240008412400088B
:1001C0004124000841240008000000000000000055
:1001D00000000000000000004124000800000000B2
:1001E000000000000000000000000000000000000F
:1001F0000000000000000000412400084124000825
:1002000041240008412400080000000041240008A7
:10021000412400084124000841240008412400082A
:1002200041240008000000004124000800000000F4
:100230004124000841240008000000004124000877
:1002400041240008412400084124000841240008FA
:1002500041240008412400084124000841240008EA
:1002600041240008412400084124000841240008DA
:100270004124000841240008412400080000000037
:1002800041240008412400084124000841240008BA
:100290000000000041240008412400080000000084
:1002A0000000000041240008412400084124000807
:1002B000412400084124000841240008791D000859
:0C02C000412400084124000841240008EB
:1002D00010B5054C237833B9044B13B10448AFF380
:1002E00000800123237010BD7C4B0024000000001F
:1002F0005099010808B5034B1BB103490348AFF3FC
:10030000008008BD00000000804B002450990108C7
:1003100001F0FF01102A2BDB10F0070F08D010F8B6
:10032000013B013A8B422DD010F0070F42B3F6D1BA
:10033000F0B441EA012141EA014122F007047FF0D3
:1003400000070023F0E80256083C85EA010586EA2A
:10035000010685FA47F5A3FA87F586FA47F6A5FA66
:1003600087F68EB9EED1F0BC01F0FF0102F0070272
:1003700032B110F8013B013A83EA010313B1F8D11D
:100380000020704701387047002D06BF35460338FE
:10039000073815F0010F07D1013015F4807F02BF37
:1003A000013015F4C03F0130F0BC0138704700BF88
:1003B000034613F8012B002AFBD1181A01387047A5
:1003C00081F0004102E000BF83F0004330B54FEA06
:1003D00041044FEA430594EA050F08BF90EA020F73
:1003E0001FBF54EA000C55EA020C7FEA645C7FEA06
:1003F000655C00F0E2804FEA5454D4EB5555B8BF29
:100400006D420CDD2C4480EA020281EA030382EA99
:10041000000083EA010180EA020281EA0303362D2B
:1004200088BF30BD11F0004F4FEA01314FF4801CFE
:100430004CEA113102D0404261EB410113F0004F10
:100440004FEA03334CEA133302D0524263EB4303C7
:1004500094EA050F00F0A780A4F10104D5F1200E65
:100460000DDB02FA0EFC22FA05F2801841F10001C0
:1004700003FA0EF2801843FA05F359410EE0A5F194
:1004800020050EF1200E012A03FA0EFC28BF4CF0C5
:10049000020C43FA05F3C01851EBE37101F000457B
:1004A00007D54FF0000EDCF1000C7EEB00006EEB88
:1004B0000101B1F5801F1BD3B1F5001F0CD3490812
:1004C0005FEA30004FEA3C0C04F101044FEA445269
:1004D00012F5800F80F09A80BCF1004F08BF5FEAF0
:1004E000500C50F1000041EB045141EA050130BDD0
:1004F0005FEA4C0C404141EB0101013C28BFB1F5E2
:10050000801FE9D291F0000F04BF01460020B1FA2C
:1005100081F308BF2033A3F10B03B3F120020CDAFF
:100520000C3208DD02F1140CC2F10C0201FA0CF0DD
:1005300021FA02F10CE002F11402D8BFC2F1200C42
:1005400001FA02F120FA0CFCDCBF41EA0C019040F8
:10055000E41AA2BF01EB0451294330BD6FEA040441
:100560001F3C1CDA0C340EDC04F11404C4F120022C
:1005700020FA04F001FA02F340EA030021FA04F33E
:1005800045EA030130BDC4F10C04C4F1200220FA95
:1005900002F001FA04F340EA0300294630BD21FAD3
:1005A00004F0294630BD94F0000F83F4801306BF99
:1005B00081F480110134013D4EE77FEA645C18BF8D
:1005C0007FEA655C29D094EA050F08BF90EA020F24
:1005D00005D054EA000C04BF1946104630BD91EA1C
:1005E000030F1EBF0021002030BD5FEA545C05D11F
:1005F0004000494128BF41F0004130BD14F580045E
:100600003CBF01F5801130BD01F0004545F0FE41D1
:1006100041F470014FF0000030BD7FEA645C1ABF06
:10062000194610467FEA655C1CBF0B46024650EA3D
:10063000013406BF52EA033591EA030F41F4002169
:1006400030BD00BF90F0000F04BF0021704730B5EF
:100650004FF4806404F132044FF000054FF00001C4
:1006600050E700BF90F0000F04BF0021704730B585
:100670004FF4806404F1320410F0004548BF40425A
:100680004FF000013EE700BF42004FEAE2014FEAAF
:1006900031014FEA02701FBF12F07F4393F07F4F8A
:1006A00081F06051704732F07F4208BF704793F08D
:1006B0007F4F04BF41F40021704730B54FF46074A0
:1006C00001F0004521F000411CE700BF50EA0102A3
:1006D00008BF704730B54FF000050AE050EA01024C
:1006E00008BF704730B511F0004502D5404261EBBC
:1006F00041014FF4806404F132045FEA915C3FF4FD
:10070000D8AE4FF003025FEADC0C18BF03325FEA99
:10071000DC0C18BF033202EBDC02C2F1200300FA4A
:1007200003FC20FA02F001FA03FE40EA0E0021FA6F
:1007300002F11444BDE600BF53B94AB9002908BF0D
:1007400000281CBF4FF0FF314FF0FF3000F0C0B960
:10075000ADF1080C6DE904CE00F03EF8DDF804E0E0
:10076000DDE9022304B0704708B502460B4643ECAE
:10077000172BB5EEC07BF1EE10FA03D4BDE80840AC
:1007800000F00AB8B1EE477B51EC170B00F004F80B
:10079000404261EB410108BD9FED0B6B41EC170B33
:1007A0009FED0B5B27EE066BBCEEC66BB8EE464BBF
:1007B000A4EE457BFCEEC77B16EE101A17EE900AEE
:1007C000704700BFAFF30080000000000000F03D64
:1007D000000000000000F0412DE9F047089D8E4622
:1007E00004468846002B4AD18A42174662D9B2FA9B
:1007F00082F64EB1C6F1200301FA06F820FA03F39F
:10080000B74043EA0808B4404FEA174E1FFA87FC86
:10081000B8FBFEF1230C0EFB118843EA084301FBF1
:100820000CF29A4209D9FB1801F1FF3080F0EA80FE
:100830009A4240F2E78002393B449A1AA3B2B2FBD3
:10084000FEF00EFB102243EA024300FB0CFC9C4529
:1008500009D9FB1800F1FF3280F0D6809C4540F2A8
:10086000D3803B44023840EA0140A3EB0C03002153
:100870001DB1F3400022C5E90032BDE8F0878B428C
:1008800005D90DB1C5E9000100210846F5E7B3FA25
:1008900083F1002946D1734502D3824200F20581DB
:1008A000841A6EEB030201209046002DE5D0C5E9C5
:1008B0000048E2E7002A00F09080B2FA82F6002EAB
:1008C00040F0A4808A1A030C4FEA174E80B2BCB2E3
:1008D0000121B2FBFEFC0EFB1C2243EA024304FB97
:1008E0000CF29A4207D9FB180CF1FF3802D29A4257
:1008F00000F2E080C4469B1AB3FBFEF20EFB1233FB
:1009000040EA034302FB04F49C4207D9FB1802F1BE
:10091000FF3002D29C4200F2CA8002461B1B42EA10
:100920000C40A5E7C1F120068B4022FA06F71F43D1
:100930000EFA01F420FA06F32EFA06FE4FEA1749E2
:10094000234300FA01F81FFA87FCBEFBF9F01C0CE8
:1009500009FB10EE44EA0E4400FB0CFEA64502FA29
:1009600001F209D93C1900F1FF3A80F09C80A645BC
:1009700040F2998002383C44A4EB0E041FFA83FE37
:10098000B4FBF9F309FB13444EEA044403FB0CFCEB
:10099000A44508D93C1903F1FF3E80F08280A445AC
:1009A0007FD9023B3C4443EA0040A4EB0C04A0FB8B
:1009B00002EC64457346E14662D35FD05DB1B8EBAB
:1009C000030264EB090404FA06F622FA01F31E435B
:1009D000CC40C5E9006400214FE7B1FBF2FC010CFB
:1009E00041EA0E4180B240EA01423B4638463C466D
:1009F000B846BE462026B1FBF7F1A2EB080241EA59
:100A00000C4166E7014618E710462CE7C6F12002C4
:100A10002EFA02F3B740B14020FA02F24FEA174E25
:100A20000A43B3FBFEF8BCB20EFB1833110C41EACB
:100A3000034108FB04F9B04089454FEA104380B2F6
:100A40003ED9791808F1FF3C01D289451FD8A1EBA6
:100A50000901B1FBFEF909FB04F80EFB191192B272
:100A600042EA0142424529D2BA1809F1FF31C4D203
:100A70004245C2D2A9F102013A44BEE7F0459DD2F7
:100A8000BEEB02036CEB070C0138E14696E7A7EBDF
:100A900009094944A8F1020CB1FBFEF909FB04F86D
:100AA000DBE773467FE7504666E70846FDE63B44D2
:100AB000023A33E7ACF1020C3B441CE749469CE7A1
:100AC000A1EB0901C446B1FBFEF909FB04F8C4E738
:100AD000704700BF80B588B000AF3C4B3C4A1A60FD
:100AE0003A4B00229A60394B0022DA60374B0022E1
:100AF0001A74364B00225A74344B00229A74334BCA
:100B000001225A61314B05229A61304B1D22DA6174
:100B10002E4B14221A622D4B02225A622B4B0522B5
:100B20009A622A4B0E22DA62284B0A221A63274B5A
:100B3000C8225A63254B00229A63244B0122DA63B0
:100B4000224B04221A64214B04225A641F4B0022B8
:100B50009A641E4B0422DA641C4B00221A651B4B5C
:100B600004225A65194B00229A65184B0022DA6557
:100B7000164B04221A66154B00225A66134B0422A8
:100B80009A66124803F012FB0346002B01D000F0D6
:100B900094FE4FF080433B6000237B600223BB60E8
:100BA0000123FB6000233B6100237B610023BB61C9
:100BB0003B461946054803F0D7FC0346002B01D0FD
:100BC00000F07BFE00BF2037BD4680BD984B00245F
:100BD00000A0004080B500AF2E4B2F4A1A602D4B6D
:100BE00000229A602B4B0022DA602A4B00221A74F2
:100BF000284B00225A74274B00229A74254B01225D
:100C00005A61244B05229A61224B1D22DA61214B45
:100C100014221A621F4B02225A621E4B05229A624C
:100C20001C4B0E22DA621B4B0A221A63194B6422F8
:100C30005A63184B00229A63164B0122DA63154B54
:100C400000221A64134B04225A64124B04229A6441
:100C5000104B0422DA640F4B00221A650D4B04225C
:100C60005A650C4B00229A650A4B0022DA65094B43
:100C700004221A66074B00225A66064B04229A6623
:100C8000044803F093FA0346002B01D000F015FE50
:100C900000BF80BD384C002400A4004080B500AFE8
:100CA0002E4B2F4A1A602D4B00229A602B4B0022AC
:100CB000DA602A4B01221A74284B00225A74274BFF
:100CC00000229A74254B01225A61244B05229A6115
:100CD000224B1D22DA61214B14221A621F4B022281
:100CE0005A621E4B05229A621C4B0E22DA621B4B83
:100CF0000A221A63194B00225A63184B00229A6386
:100D0000164B0122DA63154B04221A64134B04229A
:100D10005A64124B00229A64104B0422DA640F4B7F
:100D200000221A650D4B04225A650C4B00229A656D
:100D30000A4B0022DA65094B04221A66074B00228F
:100D40005A66064B04229A66044803F02FFA0346BB
:100D5000002B01D000F0B1FD00BF80BDD84C0024B5
:100D600000D4004080B5BCB000AF786007F1DC0370
:100D700000221A605A609A60DA601A6107F1200353
:100D8000B8220021184615F0F5FB7B681B688F4AD6
:100D9000934259D14FF400424FF00003C7E90823B2
:100DA0004FF08053C7F88C3007F12003184605F048
:100DB000EBFE0346002B01D000F07FFD844B1B6847
:100DC0000133834A1360824B1B68012B0ED1814B88
:100DD000D3F8EC307F4A43F48073C2F8EC307D4B9B
:100DE000D3F8EC3003F48073FB61FB69794BD3F8E3
:100DF000E030784A43F00103C2F8E030754BD3F895
:100E0000E03003F00103BB61BB694FF4C053C7F886
:100E1000DC300223C7F8E0300023C7F8E4300023B9
:100E2000C7F8E8300923C7F8EC3007F1DC031946AE
:100E3000694804F0ADFB00220021132001F030FDD1
:100E4000132001F047FDBCE07B681B68634A9342B6
:100E500059D14FF400424FF00003C7E908234FF087
:100E60008053C7F88C3007F12003184605F08CFE3C
:100E70000346002B01D000F020FD554B1B680133C9
:100E8000534A1360524B1B68012B0ED1514BD3F8C0
:100E9000EC30504A43F48073C2F8EC304D4BD3F839
:100EA000EC3003F480737B617B694A4BD3F8E0300C
:100EB000484A43F00203C2F8E030464BD3F8E03032
:100EC00003F002033B613B694FF44053C7F8DC3049
:100ED0000223C7F8E0300023C7F8E4300023C7F846
:100EE000E8300923C7F8EC3007F1DC0319463C4829
:100EF00004F04EFB00220021142001F0D1FC14204C
:100F000001F0E8FC5DE07B681B68364A934258D1EB
:100F10004FF400424FF00003C7E908234FF080531D
:100F2000C7F88C3007F12003184605F02DFE034664
:100F3000002B01D000F0C1FC254B1B680133244A73
:100F40001360234B1B68012B0ED1224BD3F8EC30DE
:100F5000204A43F48073C2F8EC301E4BD3F8EC30D7
:100F600003F48073FB60FB681A4BD3F8E030194A36
:100F700043F00803C2F8E030164BD3F8E03003F03A
:100F80000803BB60BB684FF44053C7F8DC30022352
:100F9000C7F8E0300023C7F8E4300023C7F8E83092
:100FA0000523C7F8EC3007F1DC0319460E4804F0BE
:100FB000EFFA002200219F2001F072FC9F2001F037
:100FC00089FC00BFF037BD4680BD00BF00A00040D7
:100FD000784D0024004402580000025800A400404C
:100FE0000004025800D40040000C025880B487B0BE
:100FF00000AF304BD3F8E0302E4A43F08003C2F804
:10100000E0302C4BD3F8E03003F080037B617B6948
:10101000284BD3F8E030274A43F00403C2F8E0300D
:10102000244BD3F8E03003F004033B613B69214BD0
:10103000D3F8E0301F4A43F00103C2F8E0301D4B03
:10104000D3F8E03003F00103FB60FB68194BD3F8E1
:10105000E030184A43F00203C2F8E030154BD3F8F1
:10106000E03003F00203BB60BB68124BD3F8E03002
:10107000104A43F00803C2F8E0300E4BD3F8E030DA
:1010800003F008037B607B680A4BD3F8E030094A21
:1010900043F04003C2F8E030064BD3F8E03003F0F1
:1010A00040033B603B6800BF1C37BD465DF8047BD6
:1010B000704700BF0044025880B500AF1C4B1D4A6A
:1010C0001A601B4B1C4A5A60194B00229A60184B3D
:1010D0000122DA60164B00221A61154B00225A6178
:1010E000134B00229A61124B0022DA61104B00224E
:1010F0001A620F4804F0F4FB0346002B01D000F005
:10110000DCFB00210A4804F0A1FC0346002B01D0BF
:1011100000F0D3FB0021064804F0E3FC0346002B5B
:1011200001D000F0CAFB012004F028FD00BF80BD03
:101130007C4D0024005400401F0DA21080B5B8B0B3
:1011400000AF786007F1CC0300221A605A609A6001
:10115000DA601A6107F11003B8220021184615F071
:1011600009FA7B681B682A4A93424DD14FF0080266
:101170004FF00003C7E904230023C7F8903007F1BC
:101180001003184605F000FD0346002B01D000F0C7
:1011900094FB204BD3F8E0301E4A43F00203C2F820
:1011A000E0301C4BD3F8E03003F00203FB60FB6837
:1011B000C023C7F8CC301223C7F8D0300023C7F8BB
:1011C000D4300023C7F8D8300423C7F8DC3007F147
:1011D000CC031946104804F0DBF90E4BD3F8E83085
:1011E0000C4A43F40013C2F8E8300A4BD3F8E83055
:1011F00003F40013BB60BB68002200211F2001F034
:101200004FFB1F2001F066FB00BFE037BD4680BDED
:1012100000540040004402580004025880B400AF5B
:10122000BFF34F8F00BF064BDB6803F4E062044955
:10123000044B1343CB60BFF34F8F00BF00BFFDE7EC
:1012400000ED00E00400FA0580B584B000AF03466D
:101250003A60FB710B46BB71F979BA7907F1080363
:10126000064801F03AFF0346FB73BB689AB23B683D
:101270001A80FB7B18461037BD4680BD60520024A3
:1012800080B582B000AF0023FB800023BB80002329
:101290007B803B1D1A4600210020FFF7D5FFBB884D
:1012A00019461F4814F0D2FFBB1D1A460121002029
:1012B000FFF7CAFFFB8819461A4814F0C7FFFB88DE
:1012C00003F00403002B26D0174815F027F8BB1CA9
:1012D0001A461F210020FFF7B7FF7B8819461348E5
:1012E00014F0B4FF7B8803F48063002B03D0104814
:1012F00015F014F802E00F4815F010F87B8803F49D
:101300000063002B03D00C4815F008F805E00B48EB
:1013100015F004F801E0FFF781FF0837BD4680BDF6
:10132000689901088C990108B0990108C0990108D1
:10133000E0990108F0990108009A0108109A010843
:1013400080B582B000AF00F055FA704B5B6903F4D2
:101350000033002B1BD1BFF34F8F00BFBFF36F8F44
:1013600000BF6A4B0022C3F85022BFF34F8F00BF6B
:10137000BFF36F8F00BF654B5B69644A43F4003372
:101380005361BFF34F8F00BFBFF36F8F00E000BF0B
:1013900001F05EF900F0C6F8FFF728FEFFF79AFBB0
:1013A00000F06EFFFFF716FCFFF786FE09F026F946
:1013B000FFF774FC00F05CFE554803F04BF9034660
:1013C000002B01D000239CE000220121504803F0B3
:1013D00063FB0346002B01D000F06FFA4D4803F089
:1013E00039F90346002B01D000238AE000221021A6
:1013F000484803F051FB0346002B01D000F05DFA92
:10140000454803F027F90346002B01D0002378E07C
:1014100000220121404803F03FFB0346002B01D08E
:1014200000F04BFA3D4B4FF080425A603B4B00229C
:101430009A603A4B0822DA60384B00221A61374B27
:1014400000225A61354B00229A61344B0022DA6146
:10145000324B00221A62FFF713FF00F07FFE0221D9
:101460000E2000F0BBFA01210F2000F0B7FA012195
:10147000102000F0B3FA0121112000F0AFFA012191
:10148000122000F0ABFA0321142000F0A7FA032188
:10149000152000F0A3FA0321162000F09FFA032183
:1014A000172000F09BFA4FF000037B601C4809F006
:1014B00011FB10F03DFF02210E2000F08FFA0121F8
:1014C0000F2000F08BFA0121102000F087FA012193
:1014D000112000F083FA0121122000F07FFA03218D
:1014E000142000F07BFA0321152000F077FA032185
:1014F000162000F073FA0321172000F06FFA00BFE6
:10150000D4E718460837BD4680BD00BF00ED00E0B7
:10151000984B0024384C0024D84C0024E04D002483
:101520000C52002480B59CB000AF07F124034C227C
:101530000021184615F01EF83B1D202200211846F8
:1015400015F018F8022004F03DFB00233B602B4B04
:101550009B692A4A23F440439361284B9B6903F417
:1015600040433B603B6800BF244B9B6903F400533E
:10157000B3F5005FF8D101237B624FF48033BB6287
:101580000223BB640223FB6401233B6544237B6588
:101590000123BB650B23FB6502233B660C237B66A3
:1015A0000023BB664FF4C053FB6607F124031846C3
:1015B00004F042FB0346002B01D000F07EF93F23EC
:1015C0007B600323BB600023FB6008233B61402357
:1015D0007B614023BB614FF48063FB6140233B622E
:1015E0003B1D0321184604F001FF0346002B01D0E8
:1015F00000F063F900BF7037BD4680BD0048025857
:1016000080B5A0B000AF786039603B6803F001039B
:10161000002B00F085807BE0434B444A40217868F2
:1016200003F09EF80346002B01D000F046F97B68DA
:101630001B683F4A93422DD13C4B1B68184600F073
:10164000ABFA034687F87F300023BB6797F87F30FB
:101650000F3B032B1ED801A252F823F06D16000891
:1016600077160008811600088B1600080F212E48F7
:1016700000F0FAF90EE010212B4800F0F5F909E02E
:101680001121294800F0F0F904E01221264800F069
:10169000EBF900BF7B681B68264A93422ED1234B8F
:1016A0001B68184600F078FA034687F87730002365
:1016B0003B6797F87730143B032B1FD801A252F8F1
:1016C00023F000BFD5160008DF160008E916000851
:1016D000F31600081421144800F0C6F90EE0152195
:1016E000114800F0C1F909E016210F4800F0BCF9DB
:1016F00004E017210C4800F0B7F900BF00220121D7
:101700000D4803F0C9F90346002B01D000F0D5F8CD
:101710004021786803F090F90346002B7FF47CAFFA
:1017200000BF8037BD4680BDD84D0024044E002444
:1017300000A0004000D40040984B002480B59EB02B
:1017400000AF786039603B6803F01003002B40D095
:1017500038E0224B224A4021786803F001F8034622
:10176000002B01D000F0A9F87B681B681D4A93424A
:1017700028D11B4B1B68184600F00EFA034687F869
:10178000773000233B6797F877300E2B1AD10F2163
:10179000124800F069F9144BD3ED0D7AB7EEE77AF1
:1017A00007F10C0053EC172B104914F0BFFD3867FC
:1017B0003B6F9AB207F10C014FF0FF330C4807F072
:1017C000FFFC00BF4021786803F036F90346002B88
:1017D000BFD100BF7837BD4680BD00BFD84D0024C3
:1017E000044E002400A400402C4E0024209A01083E
:1017F0007451002480B584B000AF3B4600221A60CB
:101800005A609A60DA6001F073F801233B7000239C
:101810007B7000237B601F233B7287237B72002336
:10182000BB720023FB7201233B7301237B730023F4
:10183000BB730023FB733B46184601F091F801236C
:101840007B704FF040537B6009233B7200237B7217
:101850000323FB7200233B7300237B730123FB7381
:101860003B46184601F07CF802237B700A4B7B60F4
:101870000D233B720123BB7201237B730023FB7397
:101880003B46184601F06CF8042001F049F800BF0F
:101890001037BD4680BD00BF0040003080B582B02B
:1018A00000AF78607B681B68B3F1804F01D100F016
:1018B0000BFF00BF0837BD4680BD80B400AF72B6D5
:1018C00000BF00BFFDE780B483B000AF7860FB7954
:1018D000C3F34213DBB25A07FB79C3F30403DBB251
:1018E0001B0603F0F8531A43B7F805309BB21B02EE
:1018F00013433A79134318460C37BD465DF8047B11
:10190000704780B487B000AF034687ED020AC7ED89
:10191000010A3960FB8197ED017AD7ED027A77EE03
:10192000677AC7ED057AFB8907EE903AB8EEE77A59
:10193000D7ED057A67EE276A01223B6802FA03F3C6
:10194000013B07EE903AF8EEE77A86EEA77AD7EDFC
:10195000027A77EE277AB0EE670A1C37BD465DF84B
:10196000047B704780B500AF034A0449044802F085
:101970009CFE00BF80BD00BFD04D0024E04D002480
:10198000984B002480B500AF064803F073F8034677
:10199000002B04D0044A0549024802F086FE00BF2D
:1019A00080BD00BF384C0024D04D0024E04D002401
:1019B00080B500AF064803F05DF80346002B04D065
:1019C000044A0549024802F070FE00BF80BD00BF16
:1019D000D84C0024D04D0024E04D002480B586B0C2
:1019E00000AF03460A46FB8013467B71FB686FF32A
:1019F0001723FB60FB7B032262F30403FB73FB886A
:101A0000DBB23B73FB7B23F0E003FB7300237B61C2
:101A100007E0124A7B69134400221A707B69013384
:101A20007B617B69072BF4DDF868FFF74CFF3861B9
:101A30000B4A3B6913607B79012B01D1FFF792FFC1
:101A40007B79022B01D1FFF79DFF7B79032B01D11D
:101A5000FFF7AEFF00BF1837BD4680BDD04D002454
:101A6000E04D00240000000090B585B000AF786024
:101A700039607B681B781BB21B021AB27B6801338A
:101A80001B781BB213431BB2FB817B6802331B78AC
:101A90001BB21B021AB27B6803331B781BB21343C1
:101AA0001BB2BB817B6804331B781BB21B021AB2CA
:101AB0007B6805331B781BB213431BB27B817B68A9
:101AC00006331B781BB21B021AB27B6807331B78E4
:101AD0001BB213431BB23B813B685C1EFB89102188
:101AE000DFED250A9FED250A1846FFF70AFFF0EE05
:101AF000407A234AA3001344C3ED007A3B685C1E7E
:101B0000BB891021F3EE040ABBEE040A1846FFF766
:101B1000F8FEF0EE407A1B4AA3001344C3ED007AAE
:101B20003B685C1E7B891021DFED170A9FED170AC9
:101B30001846FFF7E6FEF0EE407A154AA30013447C
:101B4000C3ED007A3B8907EE903AB8EEE77B9FED54
:101B5000086B27EE067B3B68013BF7EEC77B0D4A1F
:101B60009B001344C3ED007A00BF1437BD4690BDFF
:101B70009A9999999999B93FB81E4941B81E49C196
:101B80002C4E0024884E002400007042000070C2D9
:101B9000E44E0024404F002480B485B000AF78604C
:101BA0007B681B0EDBB203F01F03FB737B681B0A11
:101BB000BB73BB7B18461437BD465DF8047B70478A
:101BC00080B483B000AF0A4BD3F8F430084A43F036
:101BD0000203C2F8F430064BD3F8F43003F00203EA
:101BE0007B607B6800BF0C37BD465DF8047B7047A7
:101BF0000044025880B590B000AF78607B680F2B2E
:101C000027D8002279681C2000F04AFE1C2000F032
:101C100061FE294A7B681360284BD3F8E830274AD5
:101C200043F00103C2F8E830244BD3F8E83003F066
:101C30000103FB60FB6807F1100207F11403114672
:101C4000184604F05FFFBB6ABB63BB6B002B06D179
:101C500001E001232CE004F029FFF86304E004F024
:101C600025FF03465B00FB63FB6B154AA2FB0323C6
:101C70009B0C013B7B63134B4FF080421A60114B6E
:101C800040F2E732DA600F4A7B6B53600D4B002263
:101C90001A610C4B00229A600A4806F037FD034691
:101CA000002B04D1074806F089FD034600E001231C
:101CB00018464037BD4680BD080000240044025845
:101CC00083DE1B439C4F002480B400AF00BFFDE7C0
:101CD00080B400AF00BFFDE780B400AF00BFFDE7F8
:101CE00080B400AF00BFFDE780B400AF00BFFDE7E8
:101CF00080B400AF00BFBD465DF8047B704780B480
:101D000000AF00BFBD465DF8047B704780B400AFF4
:101D100000BFBD465DF8047B704780B400AF00BFD4
:101D2000BD465DF8047B704780B500AF024802F005
:101D30002DFF00BF80BD00BF984B002480B500AFD1
:101D4000024802F023FF00BF80BD00BF384C0024D2
:101D500080B500AF024806F0B7FD00BF80BD00BFF0
:101D60009C4F002480B500AF024803F055FE00BF31
:101D700080BD00BF7C4D002480B500AF024802F05A
:101D800005FF00BF80BD00BFD84C002480B400AF69
:101D900001231846BD465DF8047B704780B483B0CC
:101DA00000AF78603960054B16221A604FF0FF33A0
:101DB00018460C37BD465DF8047B70471C8500242F
:101DC00080B582B000AF78604FF0FF317868FFF7E0
:101DD000E5FF00BFFDE780B586B000AFF860B960F1
:101DE0007A6000237B610AE0AFF300800146BB68A4
:101DF0005A1CBA60CAB21A707B6901337B617A6976
:101E00007B689A42F0DB7B6818461837BD4680BD78
:101E100080B586B000AFF860B9607A6000237B615E
:101E200009E0BB685A1CBA601B781846AFF3008003
:101E30007B6901337B617A697B689A42F1DB7B685D
:101E400018461837BD4680BD80B483B000AF7860B7
:101E50004FF0FF3318460C37BD465DF8047B7047E2
:101E600080B483B000AF786039603B684FF40052B3
:101E70005A60002318460C37BD465DF8047B704756
:101E800080B483B000AF7860012318460C37BD469C
:101E90005DF8047B704780B485B000AFF860B9602E
:101EA0007A60002318461437BD465DF8047B7047FE
:101EB00080B487B000AF7860144A154BD31A7B61A9
:101EC0007B693B61134B1B68002B02D1114B124AFB
:101ED0001A60104B1A687B6813443A699A4205D21B
:101EE0000E4B0C221A604FF0FF3309E0094B1B68C0
:101EF000FB60084B1A687B681344064A1360FB6852
:101F000018461C37BD465DF8047B70470000052469
:101F100000040000E84F0024308500241C850024C4
:101F200080B400AF3E4BD3F888303D4A43F4700391
:101F3000C2F888303B4B1B6803F00F03062B07D811
:101F4000384B1B6823F00F03364A43F00703136036
:101F5000354B1B68344A43F001031360324B0022B7
:101F60001A61314B1A683049304B13400B602D4BCE
:101F70001B6803F00803002B07D02A4B1B6823F0D3
:101F80000F03284A43F007031360274B00229A618E
:101F9000254B0022DA61244B00221A62224B244A8C
:101FA0009A62214B234ADA621F4B234A1A631E4B63
:101FB00000225A631C4B204A9A631B4B0022DA63AF
:101FC000194B1D4A1A64184B00225A64164B1B68A1
:101FD000154A23F480231360134B00221A66124B18
:101FE000D3F8D43003F48053002B13D10E4BD3F825
:101FF000D4300D4A43F48053C2F8D4300F4B43F22F
:10200000D2021A60084BD3F8D430074A23F4805325
:10201000C2F8D43000BFBD465DF8047B704700BFF6
:1020200000ED00E000200052004402587FEDF6EA87
:10203000000202020000FF01800201010040005284
:1020400080B400AF094BDB68084A43F00203D36059
:1020500000BF064B5B6803F40053002BF9D000BFB0
:1020600000BFBD465DF8047B704700BF00480258C2
:1020700080B588B000AF07F1100300221A605A60E3
:102080009A60DA603B1D00221A605A609A60204B09
:10209000204A1A601E4B00225A601D4B00229A6093
:1020A0001B4B4FF6FF72DA60194B00221A61184B76
:1020B00000225A61164B00229A61154806F026FB51
:1020C0000346002B01D0FFF7F8FB4FF480533B6130
:1020D00007F1100319460E4806F0FEFC0346002BDC
:1020E00001D0FFF7EAFB00237B600023BB600023E5
:1020F000FB603B1D1946064806F058FF0346002BBF
:1021000001D0FFF7DAFB00BF2037BD4680BD00BF1E
:10211000EC4F00240000014080B485B000AF78602F
:102120007B681B680B4A93420ED10B4BD3F8F030FF
:10213000094A43F00103C2F8F030074BD3F8F030FE
:1021400003F00103FB60FB6800BF1437BD465DF878
:10215000047B7047000001400044025880B584B001
:1021600000AF10F089FD0346164A1360164BBB60A2
:10217000144B1B6807F1080142F2B822184610F010
:1021800091FC0346FB73114B7B607B68104A136024
:10219000104B43F23A021A8097F90F30002B07D107
:1021A000084B1B6800220C49184610F003FD04E0A0
:1021B000044B1B68184610F01DFD00BF1037BD46CC
:1021C00080BD00BF38500024C0A8010AC0A8011477
:1021D0003C50002440500024DD21000880B586B02A
:1021E00000AFF860B9607A603B607B68002B3CD040
:1021F000204B1B6801331F4A13607B6859687B685A
:102200005B891A461C4814F046FA7B685B891A46BB
:10221000194B0021995478680AF0FAFA174B7B6140
:102220007869FEF7C5F803469BB24FF42072194651
:1022300036200AF009F838613B69002B12D0786922
:10224000FEF7B6F803469BB21A46796938690AF078
:102250004BFD3B8C3A683969B86810F06DFA386903
:102260000AF0D6FA78680AF0D3FA00BF1837BD46EC
:1022700080BD00BF70510024445000242C9A0108F6
:1022800080B500AF224B234A1A60214B4FF4E13254
:102290005A601F4B00229A601D4B0022DA601C4BD3
:1022A00000221A611A4B0C225A61194B00229A61C2
:1022B000174B0022DA61164B00221A62144B0022DF
:1022C0005A62134B00229A62114806F029FF034616
:1022D000002B01D0FFF7F1FA00210D4808F0C3F8F8
:1022E0000346002B01D0FFF7E8FA0021084808F068
:1022F000F8F80346002B01D0FFF7DFFA044808F096
:1023000079F80346002B01D0FFF7D7FA00BF80BD54
:10231000745100240010014080B5B8B000AF78605F
:1023200007F1CC0300221A605A609A60DA601A61E1
:1023300007F11003B8220021184614F01BF97B683E
:102340001B68274A934246D14FF001024FF0000329
:10235000C7E904230023C7F8883007F110031846A3
:1023600004F012FC0346002B01D0FFF7A6FA1D4B28
:10237000D3F8F0301B4A43F01003C2F8F030194B89
:10238000D3F8F03003F01003FB60FB68154BD3F873
:10239000E030144A43F00203C2F8E030114BD3F8A6
:1023A000E03003F00203BB60BB684FF44043C7F862
:1023B000CC300223C7F8D0300023C7F8D430002334
:1023C000C7F8D8300423C7F8DC3007F1CC0319462E
:1023D000054803F0DDF800BFE037BD4680BD00BF13
:1023E000001001400044025800040258DFF838D0C1
:1023F000FFF726FEFFF794FD0C480D490D4A002318
:1024000002E0D458C4500433C4188C42F9D30A4AA9
:102410000A4C002301E013600432A242FBD314F003
:1024200013F9FEF78DFF704700000524000000241B
:10243000F801002430CA01087C4B00242C850024BC
:10244000FEE780B483B000AF786039607B68002B12
:102450000BD03B68DB68002B07D03B689B68002BE8
:1024600003D03B681B69002B02D14FF0FF3314E00F
:102470003B681A687B689A603B685A687B68DA60D8
:102480003B68DA687B685A613B689A687B681A61C6
:102490003B681A697B689A61002318460C37BD4671
:1024A0005DF8047B704780B586B000AF786000238C
:1024B000FB6000237B6100233B617B685B68002B32
:1024C00039D17B689B68002B02D07B689B6898475A
:1024D0007B6820221A6000237B611CE07B685B69BB
:1024E00007F10C021221786998470346002B03DAA2
:1024F0006FF004033B610BE0FB6803F01F037A6994
:102500009A4205D17B687A691A6000233B6105E035
:102510007B6901337B617B691F2BDFD97B681B687B
:102520001F2B02D96FF002033B613B69002B02D1E4
:102530007B6801225A603B6918461837BD4680BD4A
:1025400080B584B000AF78600023FB607B685B6976
:102550007A68106807F10C02012198470346002BA6
:1025600002DA6FF004036EE07B685B697A681068DA
:1025700007F10C02012198470346002B02DA6FF0A5
:10258000040360E0FB6803F00403002B01D1012386
:1025900059E07B685B697A68106807F10C020021DA
:1025A00098470346002B02DA6FF004034BE0FB6808
:1025B00003F48053002B1BD1FB6803F40053002B62
:1025C00006D0FB6803F48073002B01D002233AE0AD
:1025D000FB6803F40053002B01D0032333E0FB68B6
:1025E00003F48073002B01D004232CE005232AE0A0
:1025F0007B685B697A68106807F10C021F219847B5
:102600000346002B02DA6FF004031CE0FB6803F4BE
:102610008053002B01D1062315E0FB6803F01C0357
:10262000182B01D102230EE0FB6803F01C03082BDA
:1026300001D1032307E0FB6803F01C03142B01D135
:10264000042300E0052318461037BD4680BD000076
:1026500080B582B000AF032000F017F904F07CF8D9
:102660000246154B9B691B0A03F00F031349CB5C11
:1026700003F01F0322FA03F37B600F4B9B6903F007
:102680000F030E4AD35C03F01F037A6822FA03F3A8
:102690000B4A13600B4A7B6813600F20FFF7AAFAFE
:1026A0000346002B01D0012302E0FFF789FA002343
:1026B00018460837BD4680BD0044025868C401086A
:1026C000040000240000002480B400AF064B1B78F7
:1026D0001A46064B1B681344044A136000BFBD46EC
:1026E0005DF8047B704700BF0C00002408520024F2
:1026F00080B400AF034B1B681846BD465DF8047BF1
:10270000704700BF0852002480B483B000AF7860E7
:10271000064B5B6823F4600204497B6813434B60FB
:1027200000BF0C37BD465DF8047B704700040058BD
:1027300080B485B000AF78607B6803F00703FB606E
:102740000B4BDB68BB60BA684FF6FF031340BB60FE
:10275000FB681A02BB681A43064B1343BB60044A6A
:10276000BB68D36000BF1437BD465DF8047B70477B
:1027700000ED00E00000FA0580B400AF044BDB6818
:102780001B0A03F007031846BD465DF8047B70473B
:1027900000ED00E080B483B000AF0346FB80B7F9E2
:1027A0000630002B0BDBFB8803F01F020749B7F94B
:1027B00006305B09012000FA02F241F8232000BF35
:1027C0000C37BD465DF8047B704700BF00E100E0B8
:1027D00080B483B000AF03463960FB80B7F90630A0
:1027E000002B0ADB3B68DAB20C49B7F9063012015C
:1027F000D2B20B4483F800230AE03B68DAB20849FE
:10280000FB8803F00F03043B1201D2B20B441A768B
:1028100000BF0C37BD465DF8047B704700E100E067
:1028200000ED00E080B489B000AFF860B9607A6074
:10283000FB6803F00703FB61FB69C3F10703042B8B
:1028400028BF0423BB61FB690433062B02D9FB6953
:10285000033B00E000237B614FF0FF32BB6902FACB
:1028600003F3DA43BB681A407B699A404FF0FF31AB
:102870007B6901FA03F3D9437B680B401343184685
:102880002437BD465DF8047B704780B582B000AF49
:1028900078607868FFF74CFF00BF0837BD4680BD01
:1028A00080B586B000AF0346B9607A60FB81FFF760
:1028B00063FF78617A68B9687869FFF7B3FF024609
:1028C000B7F90E3011461846FFF782FF00BF1837E0
:1028D000BD4680BD80B582B000AF0346FB80B7F92E
:1028E00006301846FFF756FF00BF0837BD4680BDCB
:1028F00080B400AFBFF35F8F00BF074B5B6A064A2F
:1029000023F480335362054B00225A6000BFBD465A
:102910005DF8047B704700BF00ED00E090ED00E043
:1029200080B483B000AF78600B4A7B6843F001034A
:1029300053600A4B5B6A094A43F480335362BFF326
:102940004F8F00BFBFF36F8F00BF00BF0C37BD4676
:102950005DF8047B704700BF90ED00E000ED00E003
:1029600080B483B000AF78607B685A781B4B9A6064
:102970001A4B1B69194A23F001031361174A7B683C
:102980005B68D3607B681B7B1A077B68DB7A1B065E
:102990001A437B689B7ADB041A437B685B7B9B044E
:1029A0001A437B689B7B5B041A437B68DB7B1B04BD
:1029B0001A437B685B7A1B021A437B681B7A5B00B5
:1029C00013437A6812781146044A0B43136100BF1F
:1029D0000C37BD465DF8047B704700BF90ED00E00A
:1029E00080B584B000AF78607B68002B01D10123F3
:1029F000E3E07B68D3F88430002B06D17B6820228B
:102A0000C3F88420786808F0D5F86E4BD3F8F4301A
:102A10006C4A43F00203C2F8F4306A4BD3F8F43046
:102A200003F00203BB60BB687B681B7A002B03D1F9
:102A30000020FFF769FE03E04FF40000FFF764FE9B
:102A4000614B5B687B681B6803F580531B687A6881
:102A5000126843F0010302F580521360FFF748FE4D
:102A6000F86011E0FFF744FE0246FB68D31AB3F5A5
:102A7000FA7F09D97B680422C3F888207B68E022AA
:102A8000C3F88420012398E07B681B6803F580531A
:102A90001B6803F00103002BE4D1786800F0B4FD5B
:102AA00003F0D4FF0346494AA2FB03239A0C7B6838
:102AB0001B68013AC3F8DC20786800F097FF7B6858
:102AC0001B6803F58053D3F8003123F4E0137A68D0
:102AD000126843F4002302F58052C2F800317B688B
:102AE0005B6903F00303002B09D07B680122C3F864
:102AF00088207B68E022C3F8842001235DE07B68A6
:102B00001B6803F58053D3F80821314B13407A68D2
:102B1000526951007A6812680B4302F58052C2F87C
:102B20000831786800F0FFFF786801F045F87B68AD
:102B30005B6805331B781A027B685B6804331B787B
:102B400019467B681B680A43C3F800237B685B68EF
:102B500003331B781A067B685B6802331B781B04FF
:102B60001A437B685B6801331B781B021A437B683E
:102B70005B681B7819467B681B680A43C3F804230B
:102B80007B681B68D3F80C177B681A68114B0B43E2
:102B9000C2F80C377B681B68D3F810177B681A687B
:102BA0000D4B0B43C2F810377B680022C3F8882016
:102BB0007B681022C3F88420002318461037BD46D6
:102BC00080BD00BF004402580004005883DE1B4350
:102BD0000180FFFF6000020C00C0200C80B582B0B5
:102BE00000AF78607B68D3F88430102B53D17B68BA
:102BF0002022C3F884207B680422DA66786800F01B
:102C0000F3F97B681B681A687B681B6842F0020254
:102C10001A607B681B681A687B681B6842F00102B7
:102C20001A607B681B68D3F8002D7B681B6842F034
:102C30000102C3F8002D7B681B6803F58053D3F8AD
:102C400004317A68126843F0010302F58052C2F839
:102C500004317B681B6803F58053D3F808317A6828
:102C6000126843F0010302F58052C2F808317B6814
:102C70001B6803F58053D3F860317A68126843F417
:102C8000817302F58052C2F860317B684022C3F83C
:102C90008420002300E0012318460837BD4680BD8C
:102CA00080B483B000AF78607B68D3F88430402B69
:102CB0003FD17B682022C3F884207B681B6803F522
:102CC0008053D3F804317A68126823F0010302F5C7
:102CD0008052C2F804317B681B6803F58053D3F837
:102CE00008317A68126823F0010302F58052C2F8B5
:102CF00008317B681B681A687B681B6822F0010238
:102D00001A607B681B68D3F8002D7B681B6842F053
:102D10000102C3F8002D7B681B681A687B681B687A
:102D200022F002021A607B681022C3F8842000237C
:102D300000E0012318460C37BD465DF8047B704760
:102D400080B586B000AFF860B9607A60BB68002BD0
:102D500009D1FB68D3F8883043F00102FB68C3F85F
:102D6000882001237FE0FB68D3F88430402B79D1A1
:102D70000022B968F86800F07DFF0346002B09D0F7
:102D8000FB68D3F8883043F00202FB68C3F8882060
:102D9000012368E0BFF34F8F00BFFB689A6AFB68AE
:102DA000063253F822307B61FB689B6A5A1CFB6831
:102DB0009A62FB689B6A032B04D9FB689B6A1A1F03
:102DC000FB689A62FB68996AFB681A68FB680631BF
:102DD00053F8213002F58052C2F82031FFF788FC09
:102DE000386139E0FB681B6803F58053D3F8603124
:102DF00003F48053002B12D0FB68D3F8883043F0E3
:102E00000802FB68C3F88820FB681B6803F5805341
:102E1000D3F86021FB68C3F88C20012323E07B6892
:102E2000B3F1FF3F18D0FFF763FC02463B69D31AAA
:102E30007A689A4202D37B68002B0DD1FB68D3F8E5
:102E4000883043F00402FB68C3F888207B694FF0A8
:102E50004052DA60012306E07B69DB68002BC1DBAE
:102E6000002300E0012318461837BD4680BD80B519
:102E700088B000AF7860396000237B610023FB7469
:102E80003B68002B09D17B68D3F8883043F00102FE
:102E90007B68C3F888200123A2E07B68D3F88430E4
:102EA000402B01D001239BE07B68DB6DFB617B68DD
:102EB000FA69123253F82230BB617B68DB6EC3F1D2
:102EC0000403FB6064E0BB69DB6803F08043002B14
:102ED00007D0BB695A687B689A67BB691A687B68C8
:102EE0005A67BB69DB6803F00053002B03D17B6892
:102EF000DB6F002B3AD0BB69DB6803F00053002B7B
:102F000005D07B6800221A667B6800225A66BB697E
:102F1000DB68C3F30E027B685B6ED31ABB60BB69D0
:102F2000DB6803F08053002B05D0BB69DA687B684F
:102F30001A670123FB747B6803F17C007B6803F153
:102F40008001BB691B691A46BB689BB208F00AF88E
:102F50007B681B6E5A1C7B681A667B685A6EBB685E
:102F60001A447B685A66BB6900221A61FB69013307
:102F7000FB61FB69032B02D9FB69043BFB617B68A6
:102F8000FA69123253F82230BB617B6901337B61ED
:102F9000BB69DB68002B06DB7A69FB689A4202D2C8
:102FA000FB7C002B8FD07B68DA6E7B691A447B68D0
:102FB000DA667B68DB6E002B02D0786800F014F8CC
:102FC0007B68FA69DA65FB7C012B08D17B68DA6FD4
:102FD0003B681A607B680022DA67002300E0012367
:102FE00018462037BD4680BD80B588B000AF7860F8
:102FF0000023BB600123FB747B689B6EFB617B68D5
:10300000FA69123253F822307B617B68DB6EBB6158
:1030100038E07B691B69002B12D107F108031846C1
:1030200007F070FFBB68002B02D10023FB7407E0A0
:10303000BB681A467B691A61BB681A467B691A60CD
:10304000FB7C002B1ED07B689B6D002B04D07B6922
:103050004FF04142DA6003E07B694FF00142DA60F1
:10306000FB690133FB61FB69032B02D9FB69043B5C
:10307000FB617B68FA69123253F822307B61BB69CD
:10308000013BBB61BB69002B02D0FB7C002BC0D194
:103090007B68DB6EBA699A421BD0FB69033303F08D
:1030A0000303FB60BFF35F8F00BF7B681969FA6899
:1030B00013465B001344DB00CA187B681B6803F5EA
:1030C0008053C3F828217B68FA699A667B68BA69DD
:1030D000DA6600BF2037BD4680BD80B586B000AF40
:1030E000F860B9607A603B60FB681B68D3F8003217
:1030F00003F00103002B01D001233EE0FB681B68B5
:10310000D3F800327B617B6923F07872BB685B0582
:1031100013437B617B6923F4F8127B681B04134320
:103120007B617B6943F00C037B617B6943F00103A6
:103130007B61FB681B687A69C3F80022FFF7D8FA45
:10314000386109E0FFF7D4FA02463B69D31AB3F5B8
:103150007A7F01D9012310E0FB681B68D3F80032A5
:1031600003F00103002BEDD1FB681B68D3F8043298
:103170009BB21A463B681A60002318461837BD46B2
:1031800080BD000080B586B000AFF860B9607A609D
:103190003B60FB681B68D3F8003203F00103002B8F
:1031A00001D001233CE0FB681B68D3F800327B614F
:1031B0007B6923F07872BB685B0513437B617B6995
:1031C00023F4F8127B681B0413437B617B6923F0B3
:1031D0000C0343F004037B617B6943F001037B61D3
:1031E0003B689AB2104BC3F804220F4A7B69C2F8BD
:1031F0000032FFF77DFA386109E0FFF779FA0246FD
:103200003B69D31AB3F57A7F01D9012308E0FB6843
:103210001B68D3F8003203F00103002BEDD100232B
:1032200018461837BD4680BD0080024080B483B088
:1032300000AF786039603B68002B01D10123C3E106
:103240007B681B681B6803F00C023B68DA627B68D2
:103250001B681B6803F01003002B14BF012300231D
:10326000DBB21A463B6883F828207B681B681B6822
:1032700003F060023B685A627B681B681B6803F4BA
:103280008073002B0CBF01230023DBB21A463B687E
:1032900083F820207B681B681B6803F40073002BF5
:1032A00014BF01230023DBB21A463B68DA777B6840
:1032B0001B681B6803F48063002B0CBF01230023F1
:1032C000DBB21A463B689A777B681B681B6803F47D
:1032D0000063002B14BF01230023DBB21A463B68B6
:1032E0005A777B681B681B6803F48053002B14BF5C
:1032F00001230023DBB21A463B681A777B681B6800
:103300001B6803F400523B689A617B681B681B686A
:1033100003F480423B685A617B681B681B6803F4B6
:103320008033002B14BF01230023DBB21A463B6815
:103330009A747B681B681B6803F40033002B0CBF76
:1033400001230023DBB21A463B685A747B681B6872
:103350001B6803F40023002B0CBF01230023DBB206
:103360001A463B681A747B681B681B6803F4801359
:10337000002B14BF01230023DBB21A463B68DA732B
:103380007B681B681B6803F40013002B14BF012328
:103390000023DBB21A463B689A737B681B681B6884
:1033A00003F48003002B14BF01230023DBB21A4671
:1033B0003B685A737B681B681B6803F40003002B8F
:1033C00014BF01230023DBB21A463B681A737B68E3
:1033D0001B681B6803F0E0623B689A607B681B68AF
:1033E0001B6803F00063002B14BF01230023DBB232
:1033F0001A463B681A717B681B681B6803F0E04241
:103400003B681A607B681B685B68C3F30D023B680E
:103410005A637B681B685B6803F48033002B0CBF26
:1034200001230023DBB21A463B6883F832207B6815
:103430001B685B6803F40033002B14BF01230023D7
:10344000DBB21A463B6883F831207B681B685B68F7
:1034500003F48023002B14BF01230023DBB21A46A0
:103460003B6883F830207B681B685B6803F08073DF
:10347000002B14BF01230023DBB21A463B6883F8FC
:1034800038207B681B685B685B0E03F01F023B689B
:10349000DA637B681B68DB6803F48073002B14BF5E
:1034A00001230023DBB21A463B6883F840207B6887
:1034B0001B68DB6803F00F023B685A647B681B687B
:1034C0001B6F03F00203002B14BF01230023DBB2A8
:1034D0001A463B6883F854207B681B681B6F03F017
:1034E0008003002B0CBF01230023DBB21A463B688C
:1034F00083F84C207B681B681B6F03F070023B68ED
:103500001A657B681B681B6F1B0C9AB23B689A6438
:103510007B681B68D3F8903003F00103002B14BFC5
:1035200001230023DBB21A463B6883F856207B68F0
:103530001B68D3F8903003F00203002B14BF012363
:103540000023DBB21A463B6883F855207B681B6872
:10355000D3F8003D03F072023B689A657B681B68F4
:10356000D3F8303D03F023023B68DA657B681B68C3
:10357000D3F8303D03F00803002B14BF01230023D0
:10358000DBB21A463B6883F862207B681B68D3F87D
:10359000303D03F01003002B14BF01230023DBB2E6
:1035A0001A463B6883F861207B681B68D3F8303D7E
:1035B00003F04003002B0CBF01230023DBB21A46AB
:1035C0003B6883F86020002318460C37BD465DF841
:1035D000047B704780B582B000AF786039603B688B
:1035E000002B01D101230BE07B68D3F88430102B32
:1035F00005D13968786800F057F8002300E001230E
:1036000018460837BD4680BD80B584B000AF7860ED
:103610007B681B68D3F80032FB60FB6823F470639F
:10362000FB6003F013FAB860BB681A4A934204D8EF
:10363000FB6843F40073FB6022E0BB68164A9342C8
:1036400004D2FB6843F44073FB6019E0BB68134A83
:10365000934215D9BB68124A934204D8FB6843F4DD
:103660008073FB600CE0BB680E4A934204D8FB6891
:1036700043F48063FB6003E0FB6843F4A063FB60FA
:103680007B681B68FA68C3F8002200BF1037BD468C
:1036900080BD00BFBF0E160200879303FFE0F50553
:1036A0007FD1F0087FB2E60E80B485B000AF7860BD
:1036B00039603B689A683B681B681A433B681B7912
:1036C000DB061A433B681B7BDB051A433B685B7BCD
:1036D0009B051A433B689B7B5B051A433B68DB7B7E
:1036E0001B0513433A68127C002A02D14FF40022D2
:1036F00000E0002213433A68527C002A02D14FF4C2
:10370000003200E000221A433B689B7C1B041A43F2
:103710003B685B691A433B689B691A433B681B7FA4
:103720001B031A433B685B7FDB0213433A68927FBB
:10373000002A02D14FF4806200E000221A433B6865
:10374000DB7F5B0213433A6892F82020002A02D103
:103750004FF4807200E000221A433B685B6A1A4310
:103760003B6893F828301B011A433B68DB6A13431C
:10377000FB607B681B681A68564B13407A681268B6
:10378000F9680B4313603B68DB6B5A063B6893F8A0
:1037900038301B061A433B6893F830309B041A43B9
:1037A0003B6893F831305B0413433A6892F8322057
:1037B000002A02D14FF4803200E000221A433B6815
:1037C0005B6B1343FB607B681B685A68424B13407A
:1037D0007A681268F9680B4353603B6893F840308D
:1037E0001A023B685B6C1343FB607B681B68DA68FA
:1037F0003A4B13407A681268F9680B43D3603B6810
:1038000093F854305A003B681B6D13433A6892F8A2
:103810004C20002A01D1802200E000221A433B689C
:103820009B6C1B041343FB607B681B681A6F4FF68D
:103830000D7313407A681268F9680B4313673B688D
:1038400093F856301A463B6893F855305B001343A3
:10385000FB607B681B68D3F8903023F003017B6822
:103860001B68FA680A43C3F890207B681B68D3F88A
:10387000003D23F072013B689A6D7B681B680A4328
:10388000C3F8002D3B68DB6D3A6892F86020002A8F
:1038900001D1402200E000221A433B6893F86130D6
:1038A0001B011A433B6893F86230DB001343FB6053
:1038B0007B681B68D3F8303D23F07B017B681B6875
:1038C000FA680A43C3F8302D00BF1437BD465DF8CF
:1038D000047B7047838004000080F8C0F0FEFFFF87
:1038E00080B485B000AF786039607B681B6803F5F1
:1038F00080531A68384B13403A6811687A68126826
:103900000B4302F5805213603B681B791A033B6836
:103910009B681A433B681B7BDB031343FB607B689C
:103920001B6803F580535A682C4B13407A68126861
:10393000F9680B4302F5805253603B685B7B1A04C5
:103940003B681B6A1343FB607B681B6803F580536D
:10395000D3F80021224B13407A681268F9680B43B0
:1039600002F58052C2F800313B681A693B681B7D42
:103970001B011A433B685B7F1B031343FB607B689F
:103980001B6803F58053D3F80421164B13407A6863
:103990001268F9680B4302F58052C2F804313B68A3
:1039A0001B7FDA073B689B691343FB607B681B68DE
:1039B00003F58053D3F808210B4B13407A68126843
:1039C000F9680B4302F58052C2F8083100BF143782
:1039D000BD465DF8047B7047FD87FFFFFE2FFFFFAC
:1039E00000C0FEFFEFEFC0FFFFFFC07F80B5A4B0B7
:1039F00000AF7860012387F83B3000233B6500234C
:103A000087F84930002387F84B30012387F830309E
:103A1000012387F85E30012387F83A30002387F8C6
:103A20005430012387F88C304FF400537B6400231B
:103A300087F864300023BB66002387F88D300023AD
:103A400087F88E304FF4C3633B66002387F8383025
:103A500000237B63012387F83D30002387F83E3045
:103A6000002387F848300023FB6700237B6700238F
:103A7000BB65002387F86C30002387F88230012370
:103A800087F84A302023C7F88830012387F84C3064
:103A9000002387F85D304FF04053FB624FF48043C2
:103AA0003B64002387F839300223C7F884300023B1
:103AB00087F88030002387F88130002387F85C3056
:103AC000012387F83C3000233B67012387F87830D7
:103AD00007F12C0319467868FFF7E6FD01233B73D5
:103AE00001233B610023BB60002387F824300023BF
:103AF0007B7500233B754FF400133B6200233B773B
:103B00004FF40013BB61002387F825304FF4067390
:103B1000BB6207F1080319467868FFF7E1FE00BFB2
:103B20009037BD4680BD80B485B000AF786000237B
:103B3000FB601DE07B68D968FA6813465B0013449C
:103B4000DB000B44BB60BB6800221A60BB6800222C
:103B50005A60BB6800229A60BB680022DA60B968CC
:103B60007B68FA68063243F82210FB680133FB6079
:103B7000FB68032BDED97B6800229A627B681B6896
:103B800003F580531A460323C2F82C317B68DA68A8
:103B90007B681B6803F58053C3F814217B68DA68DF
:103BA0007B681B6803F58053C3F8202100BF1437DE
:103BB000BD465DF8047B704780B485B000AF786087
:103BC0000023FB6023E07B681969FA6813465B00F9
:103BD0001344DB000B44BB60BB6800221A60BB6867
:103BE00000225A60BB6800229A60BB680022DA603B
:103BF000BB6800221A61BB6800225A61B9687B6801
:103C0000FA68123243F82210FB680133FB60FB684C
:103C1000032BD8D97B680022DA657B6800221A66FC
:103C20007B6800229A667B680022DA667B68002245
:103C30009A657B681B6803F580531A460323C2F814
:103C400030317B681A697B681B6803F58053C3F8C1
:103C50001C217B681B6903F148027B681B6803F524
:103C60008053C3F8282100BF1437BD465DF8047B9C
:103C70007047000080B491B000AFF860B9607A601E
:103C8000FB6818337B627B6A1B69FB637B6A1B6979
:103C90003B6200237B637B6AFA6B53F822303B6301
:103CA000BB689B68FB620023BB623B6BDB6803F075
:103CB0000043B3F1004F07D07A6AFB6B04339B00DB
:103CC00013445B68002B01D0022366E2BB681B68CB
:103CD00003F00403002B44D03B6BDA68754B1340B0
:103CE000BA68526A1A433B6BDA603B6BDB6843F499
:103CF00080323B6BDA60FB681B681A6EFB681B68DE
:103D000042F480121A66BB681B6803F00803002B9C
:103D100027D03B6B9B689AB2BB68DB6A1B041A43D3
:103D20003B6B9A603B6BDB6843F400323B6BDA60C1
:103D30003B6BDB6823F44022BB681B6B1A433B6B75
:103D4000DA60FB681B685A6EFB681B6842F48012DD
:103D50005A66FB681B681A6DFB681B6842F080623C
:103D60001A65BB681B6803F01003002B0ED03B6B79
:103D70009A68514B1340BA6892691A433B6B9A6038
:103D80003B6BDB6843F080623B6BDA60BB681B68AF
:103D900003F00403002B05D1BB681B6803F010037C
:103DA000002B36D03B6BDB6843F080423B6BDA6024
:103DB000BFF35F8F00BF3B6BDB6843F000423B6BA0
:103DC000DA60FB6B0133FB63FB6B032B02D9FB6BEC
:103DD000043BFB637B6AFA6B53F822303B637B6BDB
:103DE00001337B633B6BDB6803F00043B3F1004FAF
:103DF0000FD17B6A3A6A53F822303B63BFF35F8F7F
:103E000000BF3B6BDB6823F000423B6BDA600223B0
:103E1000C3E17B6B01337B63FB6A1B681A463B6B18
:103E20001A603B6B9A68244B1340FA6A52681A4333
:103E30003B6B9A60FB6A9B68002B12D0FB6A9B6805
:103E4000FB62FB6A1B681A463B6B5A603B6B9A68C5
:103E50001A4B1340FA6A526812041A433B6B9A6079
:103E600008E03B6B00225A603B6B9A68134B13408F
:103E70003A6B9360BB681B6803F01003002B21D0E2
:103E80003B6BDB6823F4F002BB681B6ADB041A435C
:103E90003B6BDA603B6BDA68094B1340BA68D26956
:103EA0001A433B6BDA603B6BDB6843F480223B6B6D
:103EB000DA602EE00000FFFF00C0FFFFFFFF00C040
:103EC0000000FCFF3B6BDA687B4B1340BA6852681A
:103ED0001A433B6BDA60BB681B6803F00103002BDD
:103EE00008D03B6BDB6823F44032BB685B691A4344
:103EF0003B6BDA60BB681B6803F02003002B08D023
:103F00003B6BDB6823F04062BB681B691A433B6B69
:103F1000DA60BB681B6803F00403002B08D03B6B1E
:103F20009B6823F44042BB689B6A1A433B6B9A60D0
:103F30003B6BDB6843F000523B6BDA603B6BDB684A
:103F400023F080423B6BDA60BFF35F8F00BF3B6BB7
:103F5000DB6843F000423B6BDA60BB681B6803F030
:103F60000203002B00F0DA803B6BDB6823F0607209
:103F7000BB68DB681A433B6BDA60CFE03B6BDB6806
:103F800023F080523B6BDA60FB6B0133FB63FB6B0E
:103F9000032B02D9FB6B043BFB637B6AFA6B53F880
:103FA00022303B633B6BDB6823F000523B6BDA60F3
:103FB0003B6BDB6803F00043B3F1004F07D07A6A34
:103FC000FB6B04339B0013445B68002B29D03B6AD6
:103FD000FB637B6AFA6B53F822303B630023BB63BD
:103FE00019E0BFF35F8F00BF3B6BDB6823F000423B
:103FF0003B6BDA60FB6B0133FB63FB6B032B02D97A
:10400000FB6B043BFB637B6AFA6B53F822303B6328
:10401000BB6B0133BB63BA6B7B6B9A42E1D3022368
:10402000BBE07B6B01337B63FB6A9B68FB62FB6AD3
:104030001B681A463B6B1A603B6B9A681F4B134018
:10404000FA6A52681A433B6B9A60FB6A9B68002BC2
:1040500012D0FB6A9B68FB62FB6A1B681A463B6BCB
:104060005A603B6B9A68164B1340FA6A5268120406
:104070001A433B6B9A6008E03B6B00225A603B6B33
:104080009A680F4B13403A6B9360BB681B6803F050
:104090001003002B18D03B6BDA680A4B1340BA6848
:1040A000D2691A433B6BDA603B6BDB6843F48022D6
:1040B0003B6BDA6020E000BF0080FFFF00C0FFFF25
:1040C000FFFF00C00000FCFF3B6BDA68364B13407B
:1040D000BA6852681A433B6BDA60BB681B6803F02E
:1040E0000103002B08D03B6BDB6823F44032BB6834
:1040F0005B691A433B6BDA60BB6A0133BB62BFF397
:104100005F8F00BF3B6BDB6843F000423B6BDA60C4
:104110003B6BDB6823F080423B6BDA60FB6A9B6899
:10412000002B7FF42BAF7B68002B06D03B6B9B688A
:1041300043F000423B6B9A6005E03B6B9B6823F0C9
:1041400000423B6B9A603B6BDB6843F080523B6BF9
:10415000DA607B6A5A6A796AFB6B04339B000B4412
:104160005A607B6AFA6B1A61EFF31083BB61BB691B
:10417000FB6101237B617B6983F3108800BF7B6A4D
:104180009A6ABB6A13445A1C7B6A9A62FB693B6158
:104190003B6983F3108800BF002318464437BD46AF
:1041A0005DF8047B704700BF0080FFFF80B598B0CA
:1041B00000AF7860844A07F10C0311464C22184680
:1041C00012F069FA7B68002B01D10123C6E17B68FC
:1041D0001B687E4A934206D17B681B6803F5807397
:1041E0001A467B685A607B6893F89830DBB2002BE4
:1041F00006D17B68002283F899207868FCF7B2FD2D
:104200007B681B689A697B681B6822F010029A61C0
:10421000FEF76EFAF86514E0FEF76AFA0246FB6DE7
:10422000D31A0A2B0DD97B68D3F89C3043F00102D6
:104230007B68C3F89C207B68032283F898200123C5
:104240008CE17B681B689B6903F00803082BE3D0B3
:104250007B681B689A697B681B6842F001029A615F
:10426000FEF746FAF86514E0FEF742FA0246FB6DE7
:10427000D31A0A2B0DD97B68D3F89C3043F0010286
:104280007B68C3F89C207B68032283F89820012375
:1042900064E17B681B689B6903F00103002BE3D09A
:1042A0007B681B689A697B681B6842F002029A610E
:1042B0007B681B7C012B08D17B681B689A697B6833
:1042C0001B6822F040029A6107E07B681B689A69CC
:1042D0007B681B6842F040029A617B685B7C012B23
:1042E00008D17B681B689A697B681B6842F480422E
:1042F0009A6107E07B681B689A697B681B6822F4F7
:1043000080429A617B689B7C012B08D17B681B688B
:104310009A697B681B6822F480529A6107E07B6887
:104320001B689A697B681B6842F480529A617B68BB
:104330001B689B6923F440717B689A687B681B68E3
:104340000A439A617B681B689A697B681B6822F044
:10435000A4029A617B681B681A697B681B6822F05B
:1043600010021A617B68DB68012B08D17B681B682F
:104370009A697B681B6842F004029A6130E07B68AE
:10438000DB68002B2CD07B68DB68022B20D07B689D
:104390001B689A697B681B6842F080029A617B689F
:1043A0001B681A697B681B6842F010021A617B68FF
:1043B000DB68032B14D17B681B689A697B681B68D8
:1043C00042F020029A610BE03C9A010800A00040F4
:1043D0007B681B689A697B681B6842F020029A61BF
:1043E0007B689B69013B5A067B68DB69013B1B02CA
:1043F0001A437B681B6A013B42EA03017B685B69E5
:10440000013B1A047B681B680A43DA617B689B687E
:10441000B3F5407F15D17B689B6A5A1E7B68DB6AC7
:10442000013B1B021A437B681B6B013B1B0142EAE9
:1044300003017B685B6A013B1A047B681B680A43C3
:10444000DA607B681B6E002B0AD07B681B68D3F890
:10445000C0107B685A6E7B681B680A43C3F8C02093
:104460007B68DA6D7B681B6E1344002B11D07B6870
:104470001B68D3F8C83023F007017B689B6E9B0054
:1044800060333B4453F8542C7B681B680A43C3F8E1
:10449000C8207B681B6C002B11D07B681B68D3F88D
:1044A000BC3023F007017B685B6C9B0060333B44AE
:1044B00053F8542C7B681B680A43C3F8BC207B6804
:1044C0009B6C002B12D07B681B68D3F8BC3023F0A8
:1044D00070017B68DB6C9B0060333B4453F8543CB9
:1044E0001A017B681B680A43C3F8BC207B681B6DFC
:1044F000002B12D07B681B68D3F8BC3023F4E0613A
:104500007B685B6D9B0060333B4453F8543C1A025C
:104510007B681B680A43C3F8BC207B681B68114A90
:10452000934207D17B685B689A687B685B6822F07E
:1045300003029A607B680022C3F894207B68002203
:10454000C3F89C207B68012283F89820786800F0EB
:104550001BFE034687F85B3097F85B3018466037E0
:10456000BD4680BD00A0004080B487B000AF786039
:1045700039607B6893F89830FB73FB7B012B02D08A
:10458000FB7B022B57D13B681B68002B2BD13B6870
:10459000DB68072B0DD13B681B691A043B68DB699C
:1045A0001B021A433B689B69134343F060537B61D2
:1045B0000EE03B689B689A073B68DB68DB061A43A2
:1045C0003B681B691B041A433B685B6913437B61AF
:1045D0007B68DA6E3B685B689B001344BB60BB681A
:1045E0007A691A6025E03B68DB685A073B681B69FB
:1045F00013437B613B68DB68072B03D13B689B69F6
:104600003B6106E03B689B689A073B685B69134324
:104610003B617B681A6F3B685B68DB001344BB60DF
:10462000BB687A691A60BB680433BB60BB683A69CF
:104630001A60002308E07B68D3F89C3043F0020244
:104640007B68C3F89C20012318461C37BD465DF8E3
:10465000047B704780B483B000AF78607B6893F8C8
:104660009830DBB2012B11D17B68022283F89820AD
:104670007B681B689A697B681B6822F001029A615B
:104680007B680022C3F89C20002308E07B68D3F8F5
:104690009C3043F004027B68C3F89C200123184639
:1046A0000C37BD465DF8047B704780B586B000AF1F
:1046B000F860B9607A60FB6893F89830DBB2022B3F
:1046C00041D1FB681B68D3F8C03003F07C53002B4A
:1046D00009D1FB68D3F89C3043F02002FB68C3F893
:1046E0009C20012338E0FB681B68D3F8C43003F436
:1046F0000013002B09D0FB68D3F89C3043F4007200
:10470000FB68C3F89C20012326E0FB681B68D3F8F4
:10471000C4301B0C03F01F037B617B697A68B968A6
:10472000F86800F0B7FEFB681B6801217A6901FA9E
:1047300002F2C3F8D02001227B699A40FB68C3F8DB
:104740009420002308E0FB68D3F89C3043F0080273
:10475000FB68C3F89C20012318461837BD4680BD6E
:1047600080B48BB000AFF860B9607A603B60002322
:10477000FB61FB6893F89830FB76FB7E022B40F0E0
:104780004981BB68402B4CD1FB681B68D3F8A03033
:1047900003F4FE03002B09D1FB68D3F89C3043F0EF
:1047A0002002FB68C3F89C2001233CE1FB681B68E6
:1047B000D3F8A43003F07F03002B09D1FB68D3F8B2
:1047C0009C3043F48072FB68C3F89C2001232AE1EB
:1047D000FB681B68D3F8A43003F08073B3F1807FCB
:1047E0000AD1FB681B68D3F8A03003F00043B3F193
:1047F000004F01D10123FB61FB681B68D3F8A43093
:104800001B0A03F03F03FA691344FB61FB685A6F0C
:10481000FB685B6CF96901FB03F39B0013447B624B
:1048200068E0BB68412B4CD1FB681B68D3F8B03003
:1048300003F4FE03002B09D1FB68D3F89C3043F04E
:104840002002FB68C3F89C200123ECE0FB681B6896
:10485000D3F8B43003F07F03002B09D1FB68D3F801
:104860009C3043F48072FB68C3F89C200123DAE09B
:10487000FB681B68D3F8B43003F08073B3F1807F1A
:104880000AD1FB681B68D3F8B03003F00043B3F1E2
:10489000004F01D10123FB61FB681B68D3F8B430E2
:1048A0001B0A03F03F03FA691344FB61FB689A6F2C
:1048B000FB68DB6CF96901FB03F39B0013447B622B
:1048C00018E0FB681B6DBA689A4209D3FB68D3F8FD
:1048D0009C3043F02002FB68C3F89C200123A2E037
:1048E000FB68DA6FFB685B6DB96801FB03F39B0043
:1048F00013447B627B6A1B6803F080427B685A60CA
:104900007B685B68002B07D17B6A1B689B0CC3F339
:104910000A027B681A6005E07B6A1B6823F060422C
:104920007B681A607B6A1B6803F000527B689A60A0
:104930007B6A1B6803F000427B681A617B6A043360
:104940007B627B6A1B689AB27B68DA617B6A1B6850
:104950001B0C03F00F027B68DA607B6A1B6803F4B0
:1049600080127B685A617B6A1B6803F400127B68C3
:104970009A617B6A1B681B0E03F07F027B681A62D8
:104980007B6A1B68DA0F7B685A627B6A04337B623E
:104990007B6A7B6100233B620AE07A693B6A1A44C6
:1049A00039683B6A0B4412781A703B6A01333B62E8
:1049B0007B68DB681F4AD35C1A463B6A9342ECD3A0
:1049C000BB68402B05D1FB681B68FA69C3F8A820B7
:1049D0001EE0BB68412B05D1FB681B68FA69C3F870
:1049E000B82015E0BB681F2B08D8FB681B680121A5
:1049F000BA6801FA02F2C3F8982009E0BB6803F034
:104A00001F02FB681B68012101FA02F2C3F89C2017
:104A1000002308E0FB68D3F89C3043F00802FB68F1
:104A2000C3F89C20012318462C37BD465DF8047B53
:104A3000704700BF78C4010880B485B000AF7860CB
:104A400039603B68402B07D17B681B68D3F8A430E2
:104A500003F07F03FB6006E07B681B68D3F8B4308B
:104A600003F07F03FB60FB6818461437BD465DF812
:104A7000047B704780B485B000AF78607B681B68AA
:104A8000D3F8C43003F03F03FB60FB6818461437CB
:104A9000BD465DF8047B704780B487B000AFF86016
:104AA000B9607A60FB6893F89830FB75FB7D012B49
:104AB00002D0FB7D022B55D1FB681B689A6DBB6849
:104AC0001340002B08D1FB681B68DA6DFB681B687C
:104AD00042F00102DA6514E0FB681B689A6DBB685E
:104AE0001340BA689A4208D1FB681B68DA6DFB680C
:104AF0001B6842F00202DA6503E0FB681B680322D0
:104B0000DA65BB6803F40073002B09D0FB681B68EF
:104B1000D3F8E010FB681B687A680A43C3F8E0200A
:104B2000BB6803F48063002B09D0FB681B68D3F8D3
:104B3000E410FB681B687A680A43C3F8E420FB684A
:104B40001B68596DBA680F4B1340FA6812680B4323
:104B500053650D4B5A69BB689B0F0B4913434B615F
:104B6000002308E0FB68D3F89C3043F00202FB68A6
:104B7000C3F89C20012318461C37BD465DF8047B12
:104B8000704700BFFFFFCF3F00A8004080B596B040
:104B900000AF78609A4B1B699B077B65984B5B69FC
:104BA0009B077A6D13407B657B681B681B6D03F464
:104BB00070433B657B681B685B6D3A6D13403B65DA
:104BC0007B681B681B6D03F00F03FB647B681B682D
:104BD0005B6DFA6C1340FB647B681B681B6D03F014
:104BE000F003BB647B681B685B6DBA6C1340BB64ED
:104BF0007B681B681B6D03F071537B647B681B68CB
:104C00005B6D7A6C13407B647B681B681B6D03F0E3
:104C100060733B647B681B685B6D3A6C13403B645C
:104C20007B681B685B6DFB637B681B681B6DBB63EC
:104C3000FB6B1B0A03F00103002B10D0BB6B1B0A9C
:104C400003F00103002B0AD07B681B684FF48072CD
:104C50001A656B4B00221A61786800F049FAFB6B09
:104C60009B0A03F00103002B1DD0BB6B9B0A03F0D2
:104C70000103002B17D07B681B68D3F8DC307B6303
:104C80007B681B68D3F8E4307A6B13407B637B68E6
:104C90001B684FF480621A65594B00221A61796BC8
:104CA000786800F0FCF97B6D002B0DD07B681A68EA
:104CB000796D544B0B401365514A7B6D9B0F13610B
:104CC000796D786800F0C0F93B6D002B0DD07B68E2
:104CD0001A68396D4B4B0B401365494A3B6D9B0F6E
:104CE0001361396D786800F0BAF9FB6C002B0DD0B8
:104CF0007B681A68F96C434B0B401365404AFB6CA8
:104D00009B0F1361F96C7868FCF77AFCBB6C002B85
:104D10000DD07B681A68B96C3A4B0B401365384A62
:104D2000BB6C9B0F1361B96C7868FCF707FDFB6BDC
:104D3000DB0A03F00103002B10D0BB6BDB0A03F08E
:104D40000103002B0AD07B681B684FF400621A65D0
:104D50002B4B00221A61786800F08CF9FB6B5B0A20
:104D600003F00103002B1DD0BB6B5B0A03F00103B2
:104D7000002B17D07B681B68D3F8D8303B637B6867
:104D80001B68D3F8E0303A6B13403B637B681B68C9
:104D90004FF400721A651A4B00221A61396B786859
:104DA00000F072F9FB6BDB0C03F00103002B10D059
:104DB000BB6BDB0C03F00103002B0AD07B681B6884
:104DC0004FF400221A650E4B00221A61786800F039
:104DD00071F9FB6B1B0C03F00103002B16D0BB6BAE
:104DE0001B0C03F00103002B10D07B681B684FF4F1
:104DF00080321A65024B00221A61786804E000BF15
:104E000000A80040FFFFCF3F00F05EF9FB6B9B0C5A
:104E100003F00103002B10D0BB6B9B0C03F00103CC
:104E2000002B0AD07B681B684FF480221A65834BE5
:104E300000221A61786800F051F9FB6B5B0C03F0FB
:104E40000103002B15D0BB6B5B0C03F00103002B9F
:104E50000FD07B681B684FF400321A65774B002235
:104E60001A617B68D3F89C3043F080027B68C3F8FA
:104E70009C203B6C002B0DD07B681A68396C704B02
:104E80000B4013656D4A3B6C9B0F1361396C78685E
:104E900000F042F97B6C002B11D07B681A68796CAA
:104EA000674B0B401365654A7B6C9B0F13617B68F6
:104EB000D3F89C207B6C1A437B68C3F89C207B68EA
:104EC0001B68604A934240F0AC807B685B689B68DB
:104ED00003F00303002B00F0A4807B685B681B6A6F
:104EE00003F00F03FB627B685B685B6AFA6A13403E
:104EF000FB627B685B681B6A03F03003BB627B6804
:104F00005B685B6ABA6A1340BB627B685B681B6A5A
:104F100003F4C0737B627B685B685B6A7A6A1340E8
:104F20007B627B685B681B6A03F4FC433B627B68C3
:104F30005B685B6A3A6A13403B627B685B681B6A2A
:104F400003F4F023FB617B685B685B6AFA691340DA
:104F5000FB617B685B685B6ABB617B685B681B6A43
:104F60007B61FB6A002B07D07B685B68FA6A1A6278
:104F7000F96A786800F0DBF8BB6A002B07D07B6821
:104F80005B68BA6A1A62B96A786800F0DBF8BB69D4
:104F90009B0903F00103002B1AD07B699B0903F0E6
:104FA0000103002B14D07B685B68DB6B1B0C9BB28E
:104FB0003B617B685B68DB6B03F03F03FB607B68F6
:104FC0005B6840221A62FA683969786800F0C5F8AF
:104FD0007B6A002B07D07B685B687A6A1A62796A01
:104FE000786800F0C6F83B6A002B0BD07B685B68E2
:104FF0003A6A1A627B68D3F89C203B6A1A437B6842
:10500000C3F89C20FB69002B0BD07B685B68FA69B6
:105010001A627B68D3F89C20FB691A437B68C3F84B
:105020009C207B68D3F89C30002B02D0786800F07D
:1050300069F800BF5837BD4680BD00BF00A80040DA
:10504000FFFFCF3F00A0004080B483B000AF786086
:10505000396000BF0C37BD465DF8047B704780B4F3
:1050600083B000AF7860396000BF0C37BD465DF893
:10507000047B704780B483B000AF786000BF0C370A
:10508000BD465DF8047B704780B483B000AF7860A4
:10509000396000BF0C37BD465DF8047B704780B4B3
:1050A00083B000AF7860396000BF0C37BD465DF853
:1050B000047B704780B483B000AF786000BF0C37CA
:1050C000BD465DF8047B704780B483B000AF786064
:1050D00000BF0C37BD465DF8047B704780B483B0D9
:1050E00000AF786000BF0C37BD465DF8047B7047A9
:1050F00080B483B000AF786000BF0C37BD465DF868
:10510000047B704780B483B000AF786000BF0C3779
:10511000BD465DF8047B704780B483B000AF786013
:10512000396000BF0C37BD465DF8047B704780B422
:1051300083B000AF7860396000BF0C37BD465DF8C2
:10514000047B704780B483B000AF7860396000BFE3
:105150000C37BD465DF8047B704780B485B000AF66
:10516000F860B9607A6000BF1437BD465DF8047B13
:10517000704780B483B000AF7860396000BF0C37EF
:10518000BD465DF8047B704780B485B000AF7860A1
:105190007B685B6BBB607B681B68D3F88420A74B84
:1051A0001340BA6891007A6812680B43C2F88430E1
:1051B0007B681B68D3F8843023F47F017B689B6B8A
:1051C0001A047B681B680A43C3F884207B689B6BC6
:1051D000BA681344BB607B681B68D3F88820974B80
:1051E0001340BA6891007A6812680B43C2F888309D
:1051F0007B681B68D3F8883023F4FE017B68DB6B87
:105200001A047B681B680A43C3F888207B68DB6B41
:105210005B00BA681344BB607B681B68D3F8A020AE
:10522000864B1340BA6891007A6812680B43C2F843
:10523000A0307B681B68D3F8A03023F4FE017B68A4
:105240001B6C1A047B681B680A43C3F8A0207B68A8
:105250001B6C7A68526C02FB03F3BA681344BB60A0
:105260007B681B68D3F8B020744B1340BA68910078
:105270007A6812680B43C2F8B0307B681B68D3F8B9
:10528000B03023F4FE017B689B6C1A047B681B68BA
:105290000A43C3F8B0207B689B6C7A68D26C02FB2F
:1052A00003F3BA681344BB607B681B68D3F8AC2077
:1052B000624B1340BA6891007A6812680B43C2F8D7
:1052C000AC307B681B6D7A68526D02FB03F3BA68E1
:1052D0001344BB607B681B68D3F8F020574B134026
:1052E000BA6891007A6812680B43C2F8F0307B68A4
:1052F0001B68D3F8F03023F47C117B689B6D1A0493
:105300007B681B680A43C3F8F0207B689B6D5B00D9
:10531000BA681344BB607B681B68D3F8C020474B56
:105320001340BA6891007A6812680B43C2F8C03023
:105330007B681B68D3F8C03023F47C117B68DB6D7D
:105340001A047B681B680A43C3F8C0207B681B688B
:10535000D3F8C03023F07C517B681B6E1A067B6843
:105360001B680A43C3F8C0207B685A6B344B134454
:105370009A007B68DA667B68DA6E7B689B6B9B00C1
:105380001A447B681A677B681A6F7B68DB6BDB00EB
:105390001A447B685A677B685A6F7B681B6C796814
:1053A000496C01FB03F39B001A447B689A677B6896
:1053B0009A6F7B689B6C7968C96C01FB03F39B0057
:1053C0001A447B68DA677B68DA6F7B681B6D7968E3
:1053D000496D01FB03F39B001A447B68C3F88020EE
:1053E0007B68D3F880207B689B6DDB001A447B6868
:1053F000C3F884207B68D3F884207B68DB6D7968F0
:10540000896E01FB03F39B001A447B68C3F8882074
:105410007B68D3F888207B681B6E7968896E01FBF6
:1054200003F39B001A447B68C3F890207B68D3F891
:105430009030044A934215D906E000BF0300FFFFF5
:10544000002B0010FCD300407B68D3F89C3043F065
:1054500020027B68C3F89C207B68032283F8982095
:10546000012310E07B68DB6EFB6005E0FB68002237
:105470001A60FB680433FB607B68D3F89030FA68ED
:105480009A42F3D3002318461437BD465DF8047BD7
:10549000704700BF80B489B000AFF860B9607A602F
:1054A0003B60BB685B68002B0AD1BB681A69BB68AC
:1054B0009B681A43BB681B689B041343FB610AE0AB
:1054C000BB681A69BB689B681A43BB681B681343B7
:1054D00043F08043FB61BB681B6A1A06BB68DB694B
:1054E0001A43BB689B691A43BB685B691A43BB6874
:1054F000DB681B0413433B61FB68D3F88420FB6823
:105500009B6E396801FB03F39B001344BB61BB69CD
:10551000FA691A60BB690433BB61BB693A691A60F6
:10552000BB690433BB6100237B6120E07B690333EB
:105530007A6813441B781A067B69023379680B4436
:105540001B781B041A437B69013379680B441B7871
:105550001B02134379687A690A4412781A43BB69BB
:105560001A60BB690433BB617B6904337B61BB6830
:10557000DB68064AD35C1A467B699342D6D300BFE8
:1055800000BF2437BD465DF8047B704778C401082E
:1055900080B489B000AF786039600023FB61864B2E
:1055A0007B618CE13B681A680121FB6901FA03F316
:1055B00013403B613B69002B00F07E813B685B68D8
:1055C00003F00303012B05D03B685B6803F0030382
:1055D000022B30D17B689B68BB61FB695B000322B7
:1055E00002FA03F3DB43BA691340BB613B68DA6834
:1055F000FB695B0002FA03F3BA691343BB617B6882
:10560000BA699A607B685B68BB610122FB6902FA38
:1056100003F3DB43BA691340BB613B685B681B095A
:1056200003F00102FB6902FA03F3BA691343BB6199
:105630007B68BA695A603B685B6803F00303032B1D
:1056400017D07B68DB68BB61FB695B00032202FA51
:1056500003F3DB43BA691340BB613B689A68FB699B
:105660005B0002FA03F3BA691343BB617B68BA6952
:10567000DA603B685B6803F00303022B23D1FB690C
:10568000DA087B68083253F82230BB61FB6903F00B
:1056900007039B000F2202FA03F3DB43BA691340AE
:1056A000BB613B681A69FB6903F007039B0002FAC0
:1056B00003F3BA691343BB61FB69DA087B680832FC
:1056C000B96943F822107B681B68BB61FB695B000A
:1056D000032202FA03F3DB43BA691340BB613B6860
:1056E0005B6803F00302FB695B0002FA03F3BA692B
:1056F0001343BB617B68BA691A603B685B6803F45B
:105700004033002B00F0D8802C4BD3F8F4302B4AD8
:1057100043F00203C2F8F430284BD3F8F43003F01E
:105720000203FB60FB68264AFB699B08023352F8C0
:105730002330BB61FB6903F003039B000F2202FAD5
:1057400003F3DB43BA691340BB617B681D4A934294
:105750004AD07B681C4A93422BD07B681B4A9342F9
:1057600025D07B681A4A93421FD07B68194A93421E
:1057700019D07B68184A934213D07B68174A93422A
:105780000DD07B68164A934207D07B68154A934236
:1057900001D1092329E00A2327E0072325E0062376
:1057A00023E0052321E004231FE003231DE002235F
:1057B0001BE0012319E000BF80000058004402589C
:1057C0000004005800000258000402580008025863
:1057D000000C025800100258001402580018025819
:1057E000001C0258002402580023FA6902F0030248
:1057F00092009340BA691343BB613849FB699B0827
:105800000233BA6941F823204FF0B0431B68BB61F3
:105810003B69DB43BA691340BB613B685B6803F4D7
:105820008013002B03D0BA693B691343BB614FF06F
:10583000B042BB6913604FF0B0435B68BB613B692A
:10584000DB43BA691340BB613B685B6803F4001338
:10585000002B03D0BA693B691343BB614FF0B042E0
:10586000BB6953607B695B68BB613B69DB43BA69B9
:105870001340BB613B685B6803F40033002B03D02B
:10588000BA693B691343BB617B69BA695A607B693A
:105890001B68BB613B69DB43BA691340BB613B6872
:1058A0005B6803F48033002B03D0BA693B69134370
:1058B000BB617B69BA691A60FB690133FB613B68B4
:1058C0001A68FB6922FA03F3002B7FF46BAE00BF6A
:1058D00000BF2437BD465DF8047B704700040058C4
:1058E00080B582B000AF78607B68002B01D10123C6
:1058F0008BE07B6893F84130DBB2002B06D17B68EC
:10590000002283F840207868FBF718FC7B6824228B
:1059100083F841207B681B681A687B681B6822F04B
:1059200001021A607B685A687B681B6822F070620B
:105930001A617B681B689A687B681B6822F40042C6
:105940009A607B68DB68012B07D17B689A687B686B
:105950001B6842F400429A6006E07B689A687B68A4
:105960001B6842F404429A607B68DB68022B08D112
:105970007B681B685A687B681B6842F400625A6047
:1059800007E07B681B685A687B681B6822F400622A
:105990005A607B681B6859687B681A681D4B0B430B
:1059A00053607B681B68DA687B681B6822F40042DE
:1059B000DA607B681A697B685B6942EA03017B688D
:1059C0009B691A027B681B680A43DA607B68D969A5
:1059D0007B681A6A7B681B680A431A607B681B68CD
:1059E0001A687B681B6842F001021A607B6800221B
:1059F0005A647B68202283F841207B6800221A6366
:105A00007B68002283F84220002318460837BD46F1
:105A100080BD00BF0080000280B584B000AF786018
:105A20007B681B689B69FB607B681B681B68BB60AD
:105A30007B685B6B002B05D07B685B6BBA68F96891
:105A40007868984700BF1037BD4680BD80B483B0EA
:105A500000AF786039607B6893F84130DBB2202B6F
:105A600038D17B6893F84030012B01D1022332E01A
:105A70007B68012283F840207B68242283F8412040
:105A80007B681B681A687B681B6822F001021A6039
:105A90007B681B681A687B681B6822F480521A6056
:105AA0007B681B6819687B681B683A680A431A6040
:105AB0007B681B681A687B681B6842F001021A60E9
:105AC0007B68202283F841207B68002283F84020F5
:105AD000002300E0022318460C37BD465DF8047B26
